:020000040800F2
:10000000A004002001010008B31100080511000838
:10001000B11100086D010008B512000800000000D1
:10002000000000000000000000000000D7110008E0
:100030006F01000800000000D5110008D911000868
:100040001B0100081B0100081B0100081B01000820
:100050001B0100081B0100081B0100081B01000810
:100060001B0100081B0100081B0100081B01000800
:100070001B0100081B0100081B0100081B010008F0
:100080001B0100081B0100081B0100087512000875
:10009000951200081B0100081B0100081B01000845
:1000A0001B0100081B0100081B0100081B010008C0
:1000B0001B0100081B0100081B0100081B010008B0
:1000C0001B0100081B0100081B0100081B010008A0
:1000D0001B0100081B0100081B0100081B01000890
:1000E0001B0100081B0100081B010008DFF80CD0F1
:1000F00000F02AF800480047D5120008A0040020AC
:100100000648804706480047FEE7FEE7FEE7FEE7B1
:10011000FEE7FEE7FEE7FEE7FEE7FEE72D1200083A
:10012000ED000008D2B201E000F8012B491EFBD21D
:1001300070470022F6E710B513460A4604461946F2
:10014000FFF7F0FF204610BD064C074D06E0E068C3
:1001500040F0010394E8070098471034AC42F6D30E
:10016000FFF7C8FFA0130008C0130008FEE77047A0
:1001700090F82020012A07D0022A05D0416A41F4D4
:100180008021416201207047006842690A43426150
:1001900000207047F0B590F820500468A468012D45
:1001A00005D0022D03D0416A41F4802153E014F0C0
:1001B000406F01D1E5004BD5C4F30164022C03D993
:1001C000416A41F4000146E00125A5401D608D68AB
:1001D0004FF4C0739DB1CE6835434E6845EAC605FD
:1001E000066803EB0417F5514FF4C275076805EB79
:1001F00004150E697E51097D012905D009E00E889C
:10020000CD6845EA4655EBE701684E5946F48076DD
:100210004E511179D2F805504FF4C67641EA0525C2
:10022000016806EB04168D511178D2F801204FF4C5
:10023000C47541EA0221026805EB041551510068BA
:1002400003EB0411425842F0010242500020F0BD7D
:10025000416A41F4001141620120F0BD10B590F8EF
:1002600020300268012B07D0022B05D0416A41F4EF
:1002700080214162012010BDD2F8000240F001004F
:10028000C2F80002087D00F01F0301209840D2F858
:100290001C328343C2F81C32CB69B3B9D2F80C329A
:1002A0008343C2F80C328C894B6864F31F434C695A
:1002B00002EBC404C4F840320C890B6864F31F439A
:1002C0004C6902EBC404C4F84432CB69012B16D14B
:1002D000D2F80C320343C2F80C320C884B6864F33A
:1002E0001F434C6902EBC404C4F840320C89CB684C
:1002F00064F31F434C6902EBC404C4F844328B69B5
:10030000002BD2F804320FD053EA0003C2F80432B3
:100310000B69002BD2F8143208D00343C2F8143210
:10032000096A012904D008E08343EFE78343F5E736
:10033000D2F81C120143C2F81C12D2F8000220F0BD
:100340000100C2F80002002010BD704702460020E4
:1003500092F82030012B01D0022B05D1106821B179
:10036000D0F8100000F003007047C068FAE730B51D
:1003700090F82040012C05D0022C03D0416A41F4B2
:1003800080215DE00468002955D02469A40754D079
:100390004FF4D874056804EB01142D5915F00405C9
:1003A000956005682D594ED0ED08556005682C59AB
:1003B000C4F34004D4604FF4DA74056804EB01140C
:1003C0002D5905F00F05156105682D59C5F3072551
:1003D000956105682C59240C54614FF4DC72046853
:1003E00002EB0112A4581C700468A458240A5C7023
:1003F0000468A458240C9C700468A258120EDA7089
:100400004FF4DE72046802EB0112A4581C710468F8
:10041000A458240A5C710468A458240C9C710468D4
:10042000A258120EDA71006881B1016941F0200111
:100430000161002030BDE468A8E7416A41F4001181
:100440004162012030BD6D0D1560AFE7C16841F01C
:100450002001C160EDE70246002092F8201001293A
:1004600001D002290CD111688A68520100D50120FF
:100470008A68120100D5401C8968C90000D5401C5B
:1004800070472DE9F05F0546006800244669D0F802
:1004900004908768D0F80CB0D0F810A0D0F818807D
:1004A000F10748D0F90714D001218160B80703D5BE
:1004B000284600F008FA0CE0780702D54FF40064F3
:1004C00007E0380702D54FF4805402E0284600F0D8
:1004D000F9F9F80516D529684FF480708860B805D9
:1004E00003D5284600F0F1F90CE0780502D544F474
:1004F000005407E0380502D544F4804402E0284661
:1005000000F0E2F9F80316D529684FF480308860CE
:10051000B80303D5284600F0DAF90CE0780302D5D9
:1005200044F4004407E0380302D544F4803402E088
:10053000284600F0CBF9300707D55FEACB6004D539
:100540002968102044F40074C86070074FF0080751
:1005500007D55FEA0B7004D52868C760284600F00D
:1005600071F9B00706D52868C068800702D0284610
:1005700000F070F9700607D55FEACA6004D52968F3
:10058000102044F480640861B00607D55FEA0A7061
:1005900004D528680761284600F064F9F00606D5FE
:1005A00028680069800702D0284600F05CF9B00393
:1005B00008D55FEAC96005D529681020486028463B
:1005C00000F052F9F00307D55FEA097004D52868F6
:1005D0004760284600F07CF9300446D55FEA497050
:1005E00040D5F00504D55FEAC87001D044F001049D
:1005F000B00504D55FEA887001D544F002047005A7
:1006000004D55FEA487001D544F00404300529D5CB
:1006100018F0700F26D008F07000402815D006DCC6
:10062000102809D020280AD0302816D10AE05028F6
:100630000ED0602811D10EE044F008040DE044F023
:1006400010040AE044F0200407E044F0400404E011
:1006500044F0800401E044F480742868816921F04A
:1006600070018161296804204860002C05D0686A07
:10067000204368622846FFF768FEBDE8F09F70B52A
:10068000040003D094F8200010B104E0012070BDF4
:10069000204600F091F82068016821F00201016015
:1006A00000F012FA0546052604E000F00DFA401BA2
:1006B0000A2811D8206840688007F6D420680168AD
:1006C00041F00101016000F0FFF905460BE000F088
:1006D000FBF9401B0A2806D9606A40F400306062CA
:1006E00084F82060D2E720684068C007EFD0207E01
:1006F0000128206801683DD021F080010160607E02
:1007000001282068016838D021F040010160A07EF6
:1007100001282068016833D021F020010160E07ECB
:100720000128206801682ED041F010010160207F6F
:1007300001282068016829D021F008010160607F4C
:1007400001282068016824D021F004010160D4E967
:1007500002010843D4E90412114308436168491EA9
:1007600008432168C86100206062012084F82000ED
:10077000002070BD41F08001C0E741F04001C5E7B5
:1007800041F02001CAE721F01001CFE741F0080154
:10079000D4E741F00401D9E70346002093F8202074
:1007A000012A01D0022A05D11A688906926891436C
:1007B00000D001207047000010B586B000210091E4
:1007C00001910291039100681B49884232D11B4874
:1007D000C16941F00071C161C16901F0007104910A
:1007E000816941F0040181618069154C00F00400C9
:1007F00004904FF4006000906946204600F07CF8B9
:10080000A014009002200190032003906946204626
:1008100000F072F800221146132000F0BFF91320F7
:1008200000F0B0F900221146142000F0B7F91420AE
:1008300000F0A8F906B010BD0064004000100240AE
:10084000000801404FF40051014800F033B90000A6
:10085000001001404FF40051014800F02BB9000096
:1008600000100140704770477047000070B50446A3
:1008700090F82000012804D0606A40F400206062F3
:1008800018E0022084F820002068016821F00101AE
:10089000016000F019F905460EE000BF00F014F900
:1008A000401B0A2808D9606A40F4003060620520C5
:1008B00084F82000012070BD20684068C007EDD199
:1008C000606270BD704770477047704770477047EF
:1008D0007047000070B5044600F0F6F80546601C4D
:1008E00002D004480078044400F0EEF8401BA04217
:1008F000FAD370BD080000202DE9F84FDFF890A171
:1009000000220AF1040B144601274FF00F090BF1E6
:10091000040E00BF0B6807FA04F52B40AB4274D1FC
:10092000DFF870C14E68A6EB0C0866452BD00DDCD5
:10093000032E34D005DC36B3012E19D0022E2FD170
:100940001BE0112E16D0122E2AD119E0B8F5881FFF
:1009500019D006DCB8F5803F15D0B8F5801F1FD13F
:1009600011E0B8F5001F0ED0B8F5041F18D10AE049
:10097000CA6815E0CA68121D12E0CA6808320FE0A2
:10098000CA680C320CE08A682AB1012A4FF00802CA
:1009900003D0456104E0042202E0056100E000228A
:1009A000FF2B01D8064601E000F104064FEA84055A
:1009B00001D9A5F12005D6F800C009FA05F82CEAFE
:1009C000080C02FA05F54CEA050CC6F800C04D68A3
:1009D000ED0057D5304DAE6946F00106AE61AD6908
:1009E00024F0030605F0010500952C4D06EB050CDF
:1009F000DCF80850A6074FEA167809FA08F6B5435E
:100A0000274EB04202D1002610E03BE0254EB04216
:100A100001D101260AE0244EB04201D1022605E0B0
:100A2000224EB04201D1032600E0042606FA08F661
:100A30002E43CCF808604D68DAF80060ED035546A7
:100A400001D51E4300E09E432E604D68DBF8006038
:100A5000AD035D4601D51E4300E09E432E604D6808
:100A6000DEF80060ED02754601D51E4300E09E43AE
:100A70002E604D68AD020E4D2E6801D51E4300E07C
:100A80009E432E60641C102CFFF444AFBDE8F88F29
:100A9000000401400000111000100240000001405D
:100AA00000080140000C014000100140001401400A
:100AB0000C040140C2684A40C26070470AB101613B
:100AC00070470904FBE70000014880687047000098
:100AD0000800002002488168027811448160704754
:100AE00008000020074810B5016841F010010160BE
:100AF000032000F073F8002000F006F800F024F85E
:100B0000002010BD0020024070B50D4D04464FF48A
:100B10007A712878B1FBF0F00A490968B1FBF0F06E
:100B200000F0DCFA48B9102C07D200222146501EF2
:100B300000F034F800206C6070BD012070BD000032
:100B400008000020140000200C4808B5816941F01D
:100B500001018161816901F001010091C16941F0E8
:100B60008051C161C06900F0805000900448416824
:100B700021F0E06141F00071416008BD00100240C9
:100B80000000014000F01F02012191404009800057
:100B900000F1E020C0F8001170470000F0B40E4BE7
:100BA0001B680C46C3F30223C3F10705042D00D9CB
:100BB0000425191D072901D2002300E0DB1E0126B0
:100BC00006FA05F1491E214099409E40761E1640C6
:100BD0003143F0BC00F0EEBA0CED00E0064900F045
:100BE000070208684FF6FF03184040EA0220034A54
:100BF00010430860704700000CED00E00000FA05AB
:100C00002DE9F047DFF8548105460E46D8F800007C
:100C100000F00700B0420CD2D8F8001021F0070114
:100C20003143C8F80010D8F8000000F00700B042C7
:100C30006FD128684A4C810712D5400703D56068F8
:100C400040F4E06060602878000703D5606840F4F5
:100C5000605060606068A96820F0F0000843606040
:100C60002878C00744D06868012816D02168022877
:100C700016D0890700294CDA616821F0030101438D
:100C80006160FFF721FF6968074641F2883001295A
:100C90000ED00229814618D026E021688903E9E7B1
:100CA0008901E7E7FFF710FFC11B494501D918E0AB
:100CB00081466068C0F381000128F3D118E000BFCD
:100CC000FFF702FFC11B49450BD86068C0F38100E4
:100CD0000228F5D10CE000BFFFF7F6FEC11B494525
:100CE00002D90320BDE8F087606810F00C0FF3D143
:100CF000D8F80010404601F00701B1420BD9016855
:100D000021F0070131430160006800F00700B042A4
:100D100001D00120E6E72878400705D56068E9683A
:100D200020F4E060084360602878000706D560681A
:100D3000296920F4605040EAC100606000F016F8B4
:100D40006168084AC1F30311515CC8400649086054
:100D50000020FFF7D9FE0020C4E700000020024079
:100D600000100240901300081400002012A185B06A
:100D70000FC98DE80F0014A0144A00680490516850
:100D8000134801F00C03042B10D0082B0ED1C1F333
:100D90008343C9031DF803000AD5516804AAC1F3AF
:100DA0004041515C0A4A5043B0FBF1F005B0704736
:100DB00008494843FAE7000002030405060708094A
:100DC0000A0B0C0D0E0F1010010200000010024063
:100DD00000127A0000093D002DE9F84F0446007822
:100DE000B94DC00748D06868C0F38100012807D01A
:100DF0006868C0F38100022809D16868C00306D57D
:100E00002868800338D5606800286FD034E06068B7
:100E1000B0F5803F0BD010B1B0F5A02F11D02868ED
:100E200020F480302860286820F4802002E02868C0
:100E300040F480302860606888B1FFF745FE0646C0
:100E400009E0286840F480202860F0E7FFF73CFEC6
:100E5000801B642875D828688003F7D50CE0FFF75D
:100E600033FE064605E000BFFFF72EFE801B642818
:100E7000F0D828688003F7D42078944E80074FF08C
:100E800001094FF000083BD5686810F00C0F07D03F
:100E90006868C0F38100022809D16868C00306D4DD
:100EA0002868800714D5206901281FD110E0206927
:100EB000B0B1C6F80090FFF707FE074605E000BF97
:100EC000FFF702FEC01B0228C4D828688007F7D5A8
:100ED0002868616920F0F80040EAC10028600FE04E
:100EE000C6F80080FFF7F0FD074606E0E9E000BF26
:100EF000FFF7EAFDC01B022823D828688007F7D433
:100F0000207800072CD57248A169D9B1C0F80090AB
:100F1000FFF7DAFD074604E0FFF7D6FDC01B022805
:100F20000FD8686A8007F7D56A484FF4FA5100680D
:100F3000B0FBF1F0009000BF0098411E0091FAD282
:100F40000EE080E0C0F80080FFF7BEFD074604E039
:100F5000FFF7BAFDC01B022875D8686A8007F7D46E
:100F60002078400760D5E8690027C00008D4E86908
:100F700040F08050E861E869012700F0805000905F
:100F800055480168C90513D40168834641F480714E
:100F90000160FFF799FD824606E000BFFFF794FD70
:100FA000A0EB0A0064284ED8DBF80000C005F5D598
:100FB000E06801280AD008B1052813D0286A20F07B
:100FC00001002862286A20F0040002E0286A40F04C
:100FD00001002862E06841F2883B98B1FFF774FD98
:100FE00082460BE0286A40F004002862EEE700BF6A
:100FF000FFF76AFDA0EB0A0159455AD8286A800715
:10100000F6D50CE0FFF760FD824605E0FFF75CFDDA
:10101000A0EB0A0159454CD8286A8007F6D41FB1C5
:10102000E86920F08050E861E06988B36968C1F33D
:101030008101022945D00228C6F8608004D0FFF75C
:1010400043FD044638E034E0FFF73EFD074604E088
:10105000FFF73AFDC01B02282BD828688001F7D47F
:10106000206AB0F5803F05D16868A16820F400309F
:1010700008436860D4E908010843696821F47411E1
:1010800008436860C6F86090FFF71EFD044606E05E
:1010900015E000BFFFF718FD001B022809D82868DB
:1010A0008001F7D50BE000BFFFF70EFD001B022803
:1010B00002D90320BDE8F88F28688001F4D400200D
:1010C000F8E70120F6E7000000100240000042426D
:1010D00080044242140000200070004010B5401E01
:1010E000B0F1807F01D3012010BD4FF0E02460619A
:1010F0000F21601700F05EF80020A061072020613A
:10110000002010BDFEE700000C480B494FF44022C0
:101110000160092141604FF0404181600021C0E938
:1011200003124FF480124261017641768176C176D6
:1011300001774177FFF7A3BA006400401800002050
:1011400070B586B00024184800940194029403946A
:10115000816941F010018161816901F01001049100
:10116000816941F020018161816901F020010491D0
:10117000816941F00401816180690C4E00F0040036
:101180004FF400550490002229463046FFF796FCA4
:1011900001200095CDE90104022003906946304604
:1011A000FFF7AAFB06B070BD00100240001001401E
:1011B000FEE770470907090E002806DA00F00F0065
:1011C00000F1E02080F8141D704700F1E02080F865
:1011D0000014704770477047FFF77CBC30B58FB084
:1011E00028216846FEF7A5FF14210AA8FEF7A1FFF3
:1011F00001210804CDE90010002402940225049185
:10120000CDE907504FF4E01009906846FFF7E4FD80
:101210000F20CDE90A056802CDE90C4002210AA899
:101220000E94FFF7EDFC0FB030BD00000D480168D3
:1012300041F00101016041680B4A114041600168C1
:101240000A4A11400160016821F48021016041686F
:1012500021F4FE0141604FF41F0181600449C00385
:1012600008607047001002400000FFF8FFFFF6FE24
:1012700008ED00E010B54FF400510448FFF71AFCE8
:10128000BDE810400248FFF7FCB800000010014024
:101290001800002010B54FF400510448FFF70AFC75
:1012A000BDE810400248FFF7ECB800000010014014
:1012B00018000020FEE702E008C8121F08C1002A3B
:1012C000FAD170477047002001E001C1121F002AC7
:1012D000FBD17047FFF706FCFFF780FFFFF730FFF9
:1012E000FFF712FF284800240125446105620461CC
:1012F000C0E90054C0E90254C0E906450146283857
:10130000FEF7ACFF204828308460C0E90345056043
:101310001830C0E90345056084606838FFF7A6FA15
:10132000194800212838FEF723FF184D4FF47A762C
:101330002C4615482838FFF78EF801466860124899
:101340002838FFF729FA58B9104B0F491B1D2831CF
:101350001A1FA1F15000FEF71DFF2078401C2070DD
:10136000094800212838FEF7F1FF40B1064A074B33
:1013700040325B1C0021A2F16800FEF7F8FF304606
:10138000FFF7A8FAD5E70000400000200000002089
:101390000000000000000000010203040607080925
:1013A000C01300080000002018000000B61200085A
:1013B000D81300081800002088040000C612000896
:1013C000000000000000000001000000100000000C
:0813D0000000000000A24A0425
:04000005080000ED02
:00000001FF
